:020000040000FA
:100000000C9462000C948A000C948A000C948A0070
:100010000C948A000C948A000C948A000C948A0038
:100020000C948A000C948A000C948A000C948A0028
:100030000C948A000C948A000C948A000C948A0018
:100040000C9419040C948A000C9489040C94630495
:100050000C948A000C948A000C948A000C948A00F8
:100060000C948A000C948A000000000024002700F1
:100070002A0000000000250028002B0000000000DE
:1000800023002600290004040404040404040202DA
:100090000202020203030303030301020408102007
:1000A0004080010204081020010204081020000012
:1000B0000008000201000003040700000000000027
:1000C0000000BC0711241FBECFEFD8E0DEBFCDBFBC
:1000D00022E0A0E6B1E001C01D92A435B207E1F72D
:1000E00011E0A0E0B1E0E2E1F1E102C005900D9283
:1000F000A036B107D9F710E0C2E6D0E004C02197DE
:10010000FE010E947308C136D107C9F70E94BB04E3
:100110000C9487080C940000833081F028F481301F
:1001200099F08230A9F008958730A9F08830C9F09D
:100130008430B1F4809180008F7D03C08091800075
:100140008F7780938000089584B58F7784BD08955C
:1001500084B58F7DFBCF8091B0008F778093B00006
:1001600008958091B0008F7DF9CFCF93DF93E7EBB7
:10017000F0E08491E3EAF0E0D491EFE8F0E0C4919C
:10018000CC23A1F081110E948C00EC2FF0E0EE0F47
:10019000FF1FE458FF4FA591B491EC91ED2381E04E
:1001A00090E009F480E0DF91CF91089580E090E045
:1001B000FACF1F93CF93DF93282F30E0F901E25558
:1001C000FF4F8491F901E656FF4FD491F901EA57A8
:1001D000FF4FC491CC23A9F0162F81110E948C00EF
:1001E000EC2FF0E0EE0FFF1FEE58FF4FA591B491FA
:1001F0008FB7F894EC91111108C0D095DE23DC93F1
:100200008FBFDF91CF911F910895DE2BF8CFCF9351
:10021000DF9390E0FC01E656FF4F24918A579F4FF1
:10022000FC0184918823D1F090E0880F991FFC0194
:10023000E859FF4FA591B491FC01EE58FF4FC591CD
:10024000D491623071F49FB7F8943C91822F8095DD
:1002500083238C93E8812E2B28839FBFDF91CF913E
:1002600008958FB7F894EC912E2B2C938FBFF6CF77
:100270003FB7F8948091B1019091B201A091B30180
:10028000B091B40126B5A89B05C02F3F19F0019687
:10029000A11DB11D3FBFBA2FA92F982F8827BC01E0
:1002A000CD01620F711D811D911D42E0660F771F08
:1002B000881F991F4A95D1F70895AF92BF92CF92A8
:1002C000DF92EF92FF920F931F93CF93DF936C0116
:1002D0007B018B01040F151FEB015E01AE18BF08F7
:1002E000C017D10759F06991D601ED91FC910190A9
:1002F000F081E02DC6010995892B79F7C501DF91C1
:10030000CF911F910F91FF90EF90DF90CF90BF9012
:10031000AF900895FC01538D448D252F30E0842F3C
:1003200090E0821B930B541710F0CF96089501971D
:100330000895FC01918D828D981761F0A28DAE0F0A
:10034000BF2FB11D5D968C91928D9F5F9F73928F91
:1003500090E008958FEF9FEF0895FC01918D828DBD
:10036000981731F0828DE80FF11D858D90E008958A
:100370008FEF9FEF0895FC01918D228D892F90E0E2
:10038000805C9F4F821B91098F739927089585EB9D
:1003900091E00E94BB0121E0892B09F420E0822F2B
:1003A000089580E090E0892B29F00E94C701811117
:1003B0000C9400000895FC01A48DA80FB92FB11D65
:1003C000A35ABF4F2C91848D90E001968F7399278B
:1003D000848FA689B7892C93A089B1898C91837069
:1003E00080648C93938D848D981306C00288F38962
:1003F000E02D80818F7D80830895EF92FF920F938F
:100400001F93CF93DF93EC0181E0888F9B8D8C8DC0
:1004100098131AC0E889F989808185FF15C09FB7B4
:10042000F894EE89FF896083E889F9898081837077
:10043000806480839FBF81E090E0DF91CF911F9126
:100440000F91FF90EF900895F62E0B8D10E00F5F47
:100450001F4F0F731127E02E8C8D8E110CC00FB61D
:1004600007FCFACFE889F989808185FFF5CFCE01B5
:100470000E94DB01F1CFEB8DEC0FFD2FF11DE35A54
:10048000FF4FF0829FB7F8940B8FEA89FB89808138
:100490008062CFCF682F85EB91E00C94FD01CF9364
:1004A000DF93EC01888D8823B9F0AA89BB89E8899C
:1004B000F9898C9185FD03C0808186FD0DC00FB642
:1004C00007FCF7CF8C9185FFF2CF808185FFEDCFC0
:1004D000CE010E94DB01E9CFDF91CF910895CF9249
:1004E000DF92EF92FF921F93CF93DF93EC01162FD1
:1004F0000E943801CF80D884E984FA849B01AC0142
:100500002C193D094E095F0969017A0130E2C316D1
:1005100033E0D306E104F10458F16F8378878987CB
:100520009A876E8181E068276E83812F0E94D900AF
:100530008E8181111DC088819981AA81BB8101971B
:10054000A109B10988839983AA83BB838C819D818A
:10055000092E000CAA0BBB0B4B855C856D857E8537
:10056000840F951FA61FB71F8B879C87AD87BE87FB
:10057000DF91CF911F91FF90EF90DF90CF90089582
:10058000CF92DF92EF92FF9261157105810591057F
:1005900069F4109200011092010110920201109270
:1005A0000301FF90EF90DF90CF9008951616170685
:1005B00018061906FCF421E030E030930501209381
:1005C00004016B017C01622F86E00E94D900F7FED6
:1005D00008C0F094E094D094C094C11CD11CE11CDC
:1005E000F11CC0920001D0920101E0920201F09250
:1005F0000301D7CF2FEF3FEF309305012093040184
:1006000020E0DFCFCF92DF92EF92FF922091A50101
:1006100021110DC010920F011092100110921101C2
:1006200010921201FF90EF90DF90CF900895C0904C
:100630001A01D0901B01E0901C01F0901D01DC011B
:10064000CB018C0D9D1DAE1DBF1D81382CE0920786
:10065000A105B10524F080E89CE0A0E0B0E0B7FF80
:1006600003C080E090E0DC019C01AD012C193D0944
:100670004E095F0969017A01C114D104E104F10452
:1006800049F2ECF081E090E0909314018093130123
:1006900061E085E00E94D900F7FE08C0F094E09484
:1006A000D094C094C11CD11CE11CF11CC0920F015C
:1006B000D0921001E0921101F0921201B3CF8FEFAE
:1006C0009FEF909314018093130160E0E2CFAFE0BD
:1006D000B1E01D921D921D921C921397E0E0F1E093
:1006E000108211821282138216961C92168260E08A
:1006F00082E00E94D90060E083E00C94D9000E945F
:10070000670360E085E00E94D9001092A101109279
:10071000A2011092A3011092A4011092A50181E000
:100720008093AB010895FC0101900020E9F7319717
:10073000AF01481B590BBC0185EB91E00C945D01A6
:100740008F929F92AF92BF92CF92DF92EF92FF92E1
:100750000F931F93CF93DF93CDB7DEB7A1970FB65B
:10076000F894DEBF0FBECDBF6B017C01F7FE3FC02A
:100770008DE20E944A028C0122273327A9012C19FD
:100780003D094E095F0919A2CE0181967C019AE0CC
:10079000892E912CA12CB12CCA01B901A50194017B
:1007A0000E945108605DF70162937F0121153105B8
:1007B0004105510589F790E080E0309719F0CF01AD
:1007C0000E949303800F911FA1960FB6F894DEBF8D
:1007D0000FBECDBFDF91CF911F910F91FF90EF9092
:1007E000DF90CF90BF90AF909F908F900895AC0115
:1007F0009B0119A28E010F5D1F4F8AE0C82ED12CDC
:10080000E12CF12CCA01B901A70196010E945108FF
:10081000605DF80162938F01211531054105510595
:1008200089F790E080E0309779F2CF010E9493033E
:10083000CBCF1F920F920FB60F9211242F933F939D
:100840008F939F93AF93BF938091AD019091AE0131
:10085000A091AF01B091B0013091AC0123E0230F22
:100860002D3758F50196A11DB11D2093AC01809341
:10087000AD019093AE01A093AF01B093B001809110
:10088000B1019091B201A091B301B091B401019670
:10089000A11DB11D8093B1019093B201A093B3014A
:1008A000B093B401BF91AF919F918F913F912F91E0
:1008B0000F900FBE0F901F90189526E8230F0296F9
:1008C000A11DB11DD2CF1F920F920FB60F9211240E
:1008D0002F933F934F935F936F937F938F939F9348
:1008E000AF93BF93EF93FF9385EB91E00E94DB0101
:1008F000FF91EF91BF91AF919F918F917F916F91F8
:100900005F914F913F912F910F900FBE0F901F90CD
:1009100018951F920F920FB60F9211242F938F9359
:100920009F93EF93FF93E091C501F091C601808101
:10093000E091CB01F091CC0182FD1BC090818091B0
:10094000CE018F5F8F732091CF01821741F0E0912C
:10095000CE01F0E0EB54FE4F958F8093CE01FF91D6
:10096000EF919F918F912F910F900FBE0F901F903D
:1009700018958081F4CF789484B5826084BD84B565
:10098000816084BD85B5826085BD85B5816085BD8A
:1009900080916E00816080936E0010928100809142
:1009A00081008260809381008091810081608093CA
:1009B0008100809180008160809380008091B100EF
:1009C00084608093B1008091B00081608093B0001A
:1009D00080917A00846080937A0080917A008260AE
:1009E00080937A0080917A00816080937A00809170
:1009F0007A00806880937A001092C10061E082E002
:100A00000E94070161E085E00E94070162E089E041
:100A10000E94070161E083E00E94070161E086E037
:100A20000E94070161E088E00E94070160E088E021
:100A30000E94D90060E082E00E94D90060E083E07B
:100A40000E94D900E091C501F091C60182E0808347
:100A5000E091C101F091C2011082E091C301F091D7
:100A6000C40180E180831092CD01E091C901F09131
:100A7000CA0186E08083E091C701F091C8018081BE
:100A800080618083E091C701F091C8018081886016
:100A90008083E091C701F091C801808180688083E4
:100AA000E091C701F091C80180818F7D8083109211
:100AB000B9011092BA011092BB011092BC010E94C0
:100AC0007F0311E0C0E0D0E001E085EB91E00E94FF
:100AD000BB01181619060CF0D0C085EB91E00E94FE
:100AE00099018A3009F0B8C08091A001E82FF0E0A8
:100AF000E05AFE4F10828823B1F046E050E060E3F8
:100B000071E080E691E00E947908892B79F486E60D
:100B100091E00E94E90721E0672B682B692B09F41B
:100B200020E02093AA011092A001CFCF44E050E032
:100B300067E371E080E691E00E947908892B71F407
:100B4000E4E6F1E081918032E9F38930D9F3883528
:100B500011F08111E8CF0E947F03E5CF44E050E01F
:100B60006CE371E080E691E00E947908892B29F41A
:100B70000E9467031092AB01D6CF8091AB01811127
:100B8000D2CF44E050E061E471E080E691E00E9461
:100B90007908892B21F5A4E6B1E0FD018D91803221
:100BA000E1F38930D1F3883561F4FD01CF01219162
:100BB0002032E1F32930D1F30E94E9070E940203B9
:100BC000B2CF893561F43196CF0121912032E1F322
:100BD0002930D1F30E94E9070E94C002A4CF80917E
:100BE0006001873489F481E691E00E94E907C090B2
:100BF0001A01D0901B01E0901C01F0901D016C19AE
:100C00007D098E099F09DACF66E471E080E691E004
:100C10000E941008C12CD12C7601812C912C5401FA
:100C2000009799F00E94E9074B015C0166E471E0CE
:100C300090E080E00E941008C12CD12C7601009732
:100C400021F00E94E9076B017C01C501B4010E94FB
:100C50000203C701B601C0CF8D3009F436CFE09151
:100C6000A001EF3308F05FCF91E09E0F9093A001B9
:100C7000F0E0E05AFE4F808328CF8091AB018823BB
:100C800009F418C10E94B500892B09F0C1C00E9467
:100C900067031092AB010093A50110921A01109204
:100CA0001B0110921C0110921D018AE491E00E9428
:100CB000930380E591E00E9493038091AA01882329
:100CC00009F49BC02FB7F8948091AD019091AE01CB
:100CD000A091AF01B091B0012FBF4091A6015091FA
:100CE000A7016091A8017091A901841B950BA60B27
:100CF000B70B883C9105A105B10508F47EC02FB75C
:100D0000F8948091AD019091AE01A091AF01B091A6
:100D1000B0012FBF8093A6019093A701A093A801D3
:100D2000B093A9018DE591E00E94930360911A01AF
:100D300070911B0180911C0190911D010E94A003E4
:100D400080E20E944A0260910B0170910C01809137
:100D50000D0190910E010E94A00380E20E944A02C0
:100D60000E94B50041E050E060E070E0892B19F08E
:100D700040E050E0BA01CB01BA010E94A00380E23A
:100D80000E944A028091AB0162E070E0811121C0B3
:100D900080910F0190911001A0911101B091120169
:100DA00061E070E0181619061A061B0694F091E02F
:100DB00080E0409100015091010160910201709129
:100DC000030114161506160617060CF090E0692F9D
:100DD000782F072E000C880B990B0E94A00380E24D
:100DE0000E944A026091A50170E090E080E00E94BC
:100DF000A00380E591E00E949303209709F465CE5B
:100E00000E94C701882309F460CE0E9400005DCED5
:100E1000C090A101D090A201E090A301F090A401A4
:100E200020EAC2162FE0D206E104F1043CF00E9451
:100E300067031092AB0183E591E039CF0E9438013E
:100E40008090160190901701A0901801B0901901A0
:100E50009B01AC01281939094A095B0949015A016A
:100E600030E2831633E09306A104B10408F425CFE1
:100E700060931601709317018093180190931901E4
:100E80006091150161276093150182E00E94D900ED
:100E900080911501811111CF4FEFC41AD40AE40AD1
:100EA000F40AC092A101D092A201E092A301F092B3
:100EB000A40103CF80910F0190911001A091110125
:100EC000B0911201181619061A061B069CF580919E
:100ED00013019091140197FD0DC080911301909121
:100EE000140118161906D4F162E08FE091E00E9417
:100EF0006F0220C00E94B500892B79F78091130101
:100F00009091140197FF08C010921A0110921B01D2
:100F100010921C0110921D0110920F0110921001ED
:100F200010921101109212011092150160E082E0FE
:100F30000E94D9008091000190910101A0910201CD
:100F4000B0910301181619061A061B060CF0B5CE4F
:100F500063E080E091E00E946F02AFCE80911A01C1
:100F600090911B01A0911C01B0911D0180389C4003
:100F7000A105B1051CF6B8CFE5EBF1E013821282B2
:100F800088EE93E0A0E0B0E084839583A683B783E6
:100F900082E291E09183808385EC90E0958784875D
:100FA00084EC90E09787868780EC90E0918B808B33
:100FB00081EC90E0938B828B82EC90E0958B848B1C
:100FC00086EC90E0978B868B118E128E138E148E8A
:100FD00008951F93FC0199278827BC01E89411917B
:100FE0001032E9F3193010F01E30C8F31B3251F003
:100FF0001D3249F4689406C00E943C08610F711DBF
:10100000811D911D119110531A30B0F33EF490954B
:101010008095709561957F4F8F4F9F4F1F910895D9
:1010200042E552E00E9415080895FA01A191B081AD
:10103000009719F41097E1F0CD01DC01CD010D907E
:10104000002011F4C00113C0FB012191222319F0EB
:101050002015D9F7F3CFFB012191201519F41E9229
:10106000119606C02223C1F70D900020A1F7D001F0
:10107000FA01A193B0830895592F482F372F262FB7
:10108000660F771F881F991F660F771F881F991F8C
:10109000620F731F841F951F660F771F881F991F8C
:1010A0000895A1E21A2EAA1BBB1BFD010DC0AA1FA9
:1010B000BB1FEE1FFF1FA217B307E407F50720F0C1
:1010C000A21BB30BE40BF50B661F771F881F991F3C
:1010D0001A9469F760957095809590959B01AC0185
:1010E000BD01CF010895EE0FFF1F0590F491E02D93
:1010F0000994FB01DC014150504030F08D9101908A
:10110000801919F40020B9F7881B990B0895F894F9
:10111000FFCF000000000100000000000000000000
:1011200000000000000100000000000000000000BE
:1011300000000000FD015D018A014F02BB01990121
:10114000AD0153544154555300484F4D450053543D
:101150004F50004D4F564500202C09005245414448
:1011600059000D0A00484F4D455F4641494C005318
:0211700020005D
:107E0000112484B714BE81FFF0D085E080938100F7
:107E100082E08093C00088E18093C10086E0809377
:107E2000C20080E18093C4008EE0C9D0259A86E02C
:107E300020E33CEF91E0309385002093840096BBD3
:107E4000B09BFECF1D9AA8958150A9F7CC24DD24C4
:107E500088248394B5E0AB2EA1E19A2EF3E0BF2EE7
:107E6000A2D0813461F49FD0082FAFD0023811F036
:107E7000013811F484E001C083E08DD089C08234E0
:107E800011F484E103C0853419F485E0A6D080C0E4
:107E9000853579F488D0E82EFF2485D0082F10E0AE
:107EA000102F00270E291F29000F111F8ED06801E7
:107EB0006FC0863521F484E090D080E0DECF843638
:107EC00009F040C070D06FD0082F6DD080E0C81688
:107ED00080E7D80618F4F601B7BEE895C0E0D1E017
:107EE00062D089930C17E1F7F0E0CF16F0E7DF06D8
:107EF00018F0F601B7BEE89568D007B600FCFDCFD4
:107F0000A601A0E0B1E02C9130E011968C91119780
:107F100090E0982F8827822B932B1296FA010C0160
:107F200087BEE89511244E5F5F4FF1E0A038BF0790
:107F300051F7F601A7BEE89507B600FCFDCF97BE46
:107F4000E89526C08437B1F42ED02DD0F82E2BD052
:107F50003CD0F601EF2C8F010F5F1F4F84911BD097
:107F6000EA94F801C1F70894C11CD11CFA94CF0C13
:107F7000D11C0EC0853739F428D08EE10CD085E9AC
:107F80000AD08FE07ACF813511F488E018D01DD067
:107F900080E101D065CF982F8091C00085FFFCCF94
:107FA0009093C60008958091C00087FFFCCF809118
:107FB000C00084FD01C0A8958091C6000895E0E648
:107FC000F0E098E1908380830895EDDF803219F02E
:107FD00088E0F5DFFFCF84E1DECF1F93182FE3DFCA
:107FE0001150E9F7F2DF1F91089580E0E8DFEE27F6
:047FF000FF270994CA
:027FFE00040479
:00000001FF
